:020000040800F2
:100000000080002045070008F9060008FF060008E8
:1000100000000000000000000000000000000000E0
:1000200000000000000000000000000005070008BC
:1000300000000000000000000F070008190700087A
:100040009507000895070008950700089507000820
:10005000950700089507000895070008270700087E
:100060009507000895070008950700089507000800
:1000700095070008950700089507000895070008F0
:1000800095070008950700089507000895070008E0
:1000900095070008950700089507000895070008D0
:1000A00095070008950700089507000895070008C0
:0C00B00095070008950700089507000858
:1000BC0010B5064C2378002B07D1054B002B02D032
:1000CC00044800E000BF0123237010BD180000207D
:1000DC000000000098170008044B10B5002B03D04B
:1000EC000349044800E000BF10BDC04600000000FA
:1000FC001C00002098170008002243088B4274D380
:10010C0003098B425FD3030A8B4244D3030B8B420C
:10011C0028D3030C8B420DD3FF22090212BA030C15
:10012C008B4202D31212090265D0030B8B4219D3F6
:10013C0000E0090AC30B8B4201D3CB03C01A524116
:10014C00830B8B4201D38B03C01A5241430B8B425E
:10015C0001D34B03C01A5241030B8B4201D30B0347
:10016C00C01A5241C30A8B4201D3CB02C01A52416E
:10017C00830A8B4201D38B02C01A5241430A8B4231
:10018C0001D34B02C01A5241030A8B4201D30B021A
:10019C00C01A5241CDD2C3098B4201D3CB01C01A34
:1001AC00524183098B4201D38B01C01A524143093E
:1001BC008B4201D34B01C01A524103098B4201D32C
:1001CC000B01C01A5241C3088B4201D3CB00C01A99
:1001DC00524183088B4201D38B00C01A5241430811
:1001EC008B4201D34B00C01A5241411A00D2014636
:1001FC00524110467047FFE701B5002000F0F0F8BF
:10020C0002BDC0460029F7D076E7704703460B4382
:10021C007FD4002243088B4274D303098B425FD3F3
:10022C00030A8B4244D3030B8B4228D3030C8B421F
:10023C000DD3FF22090212BA030C8B4202D3121205
:10024C00090265D0030B8B4219D300E0090AC30BDA
:10025C008B4201D3CB03C01A5241830B8B4201D387
:10026C008B03C01A5241430B8B4201D34B03C01A70
:10027C005241030B8B4201D30B03C01A5241C30AE8
:10028C008B4201D3CB02C01A5241830A8B4201D359
:10029C008B02C01A5241430A8B4201D34B02C01A43
:1002AC005241030A8B4201D30B02C01A5241CDD2E8
:1002BC00C3098B4201D3CB01C01A524183098B4233
:1002CC0001D38B01C01A524143098B4201D34B011C
:1002DC00C01A524103098B4201D30B01C01A52417F
:1002EC00C3088B4201D3CB00C01A524183088B4206
:1002FC0001D38B00C01A524143088B4201D34B00EF
:10030C00C01A5241411A00D2014652411046704760
:10031C005DE0CA0F00D04942031000D34042534065
:10032C0000229C4603098B422DD3030A8B4212D325
:10033C00FC22890112BA030A8B420CD38901921157
:10034C008B4208D3890192118B4204D389013AD094
:10035C00921100E08909C3098B4201D3CB01C01A69
:10036C00524183098B4201D38B01C01A524143097C
:10037C008B4201D34B01C01A524103098B4201D36A
:10038C000B01C01A5241C3088B4201D3CB00C01AD7
:10039C00524183088B4201D38B00C01A5241D9D2EF
:1003AC0043088B4201D34B00C01A5241411A00D270
:1003BC000146634652415B10104601D34042002B6C
:1003CC0000D54942704763465B1000D3404201B5EB
:1003DC00002000F005F802BD0029F8D016E77047A0
:1003EC007047C04690B585B000AF0200FB1D1A7077
:1003FC00FB1D1A780F243B192F498A5C1A703B1984
:10040C001B7801221340DAB29023DB05012118007E
:10041C0000F076FC3B191B785B08DBB20122134021
:10042C00DAB29023DB050221180000F069FC3B19BD
:10043C001B789B08DBB201221340DAB29023DB0558
:10044C000421180000F05CFC3B191B78DB08DBB2C4
:10045C0001221340DAB29023DB050821180000F0CA
:10046C004FFC3B191B781B09DBB201221340DAB29B
:10047C009023DB051021180000F042FC3B191B787F
:10048C005B09DBB201221340DAB29023DB05202199
:10049C00180000F035FC3B191B789B09DBB20122DC
:1004AC001340DAB29023DB054021180000F028FC41
:1004BC00C046BD4605B090BD0000002080B582B09E
:1004CC0000AF0200BB1D1A80BB1D1A8880231B01C4
:1004DC009A420FD1094B1B7801330A211800FFF700
:1004EC007BFF0B00DAB2054B1A70044B1B7818001B
:1004FC00FFF778FFC046BD4602B080BD3400002037
:10050C0080B500AF00F042F900F00AF800F048F8AE
:10051C00024B1B781800FFF765FFFEE73400002044
:10052C0090B593B000AF14243B19180034231A0073
:10053C00002101F023F93B1D180010231A000021A3
:10054C0001F01CF921007B1802221A607B18012291
:10055C00DA607B1810221A617B1800225A627B1811
:10056C00180000F007FC031E01D000F095F83B1DAD
:10057C0007221A603B1D00225A603B1D00229A6024
:10058C003B1D0022DA603B1D0021180000F078FFB3
:10059C00031E01D000F080F8C046BD4613B090BDDC
:1005AC0090B589B000AF0C243B19180014231A0025
:1005BC00002101F0E3F8364B5A69354B8021890252
:1005CC000A435A61324B5A6980239B021340BB6029
:1005DC00BB682F4B5A692E4B8021C9020A435A61C2
:1005EC002B4B5A698023DB0213407B607B68902382
:1005FC00DB0500227F21180000F082FB254B002236
:10060C000121180000F07CFB3B197F221A603B197A
:10061C0001225A603B1900229A603B190022DA60D1
:10062C003A199023DB051100180000F0F1F93B1981
:10063C0001221A603B1901225A603B1900229A6070
:10064C003B190022DA603B19124A1900100000F025
:10065C00DFF921007B18802212011A607B1884229A
:10066C0092035A607B1801229A607B18094A190080
:10067C00100000F0CDF900220021072000F096F9BF
:10068C00072000F0A8F9C046BD4609B090BDC04691
:10069C00001002400004004880B500AF72B6C0469E
:1006AC00FEE7000080B582B000AF0F4B9A690E4B8D
:1006BC0001210A439A610C4B9B69012213407B6018
:1006CC007B68094BDA69084B802149050A43DA61DA
:1006DC00054BDA6980235B0513403B603B68C046E1
:1006EC00BD4602B080BDC0460010024080B500AFD0
:1006FC00FEE780B500AFFEE780B500AFC046BD4653
:10070C0080BD80B500AFC046BD4680BD80B500AF92
:10071C0000F084F8C046BD4680BD80B500AF802394
:10072C001B01180000F00AFBC046BD4680BD80B519
:10073C0000AFC046BD4680BD0D4885460D480E49EC
:10074C000E4A002302E0D458C4500433C4188C421F
:10075C00F9D30B4A0B4C002301E013600432A24284
:10076C00FBD3FFF7E4FF00F0E5FFFFF7C9FEFEE760
:10077C00008000200000002018000020E81700086E
:10078C00180000203C000020FEE7000080B500AF00
:10079C00074B1A68064B10210A431A60032000F01D
:1007AC0009F8FFF77FFF00231800BD4680BDC04647
:1007BC000020024090B583B000AF7860144B1C68E9
:1007CC00144B1B781900FA239800FFF795FC0300D3
:1007DC0019002000FFF790FC0300180000F00BF943
:1007EC00031E01D001230FE07B68032B0BD8796823
:1007FC0001235B420022180000F0D8F8064B7A68FF
:10080C001A60002300E001231800BD4603B090BD20
:10081C000C000020140000201000002080B500AF58
:10082C00054B1B781A00054B1B68D218034B1A603A
:10083C00C046BD4680BDC0461400002038000020D4
:10084C0080B500AF024B1B681800BD4680BDC0468A
:10085C003800002080B582B000AF0200FB1D1A707A
:10086C00FB1D1B787F2B09D8FB1D1B781A001F233F
:10087C001A40044B012191400A001A60C046BD4643
:10088C0002B080BD00E100E090B583B000AF020083
:10089C003960FB1D1A70FB1D1B787F2B28D82F4A43
:1008AC00FB1D1B785BB29B08C0339B009B58FA1D49
:1008BC001278110003220A40D200FF2191400A0055
:1008CC00D2431A4011003B689B01FF221A40FB1DCA
:1008DC001B78180003230340DB009A401F48FB1DC4
:1008EC001B785BB29B080A43C0339B001A5031E063
:1008FC001B4AFB1D1B7819000F230B40083B9B0860
:10090C0006339B00D31804331B68FA1D12781100B0
:10091C0003220A40D200FF2191400A00D2431A4020
:10092C0011003B689B01FF221A40FB1D1B7818002D
:10093C0003230340DB009A400948FB1D1B781C0075
:10094C000F232340083B9B080A4306339B00C31824
:10095C0004331A60C046BD4603B090BD00E100E010
:10096C0000ED00E080B582B000AF78607B685A1E65
:10097C0080235B049A4201D3012310E00A4B7A686E
:10098C00013A5A6001235B4203211800FFF77CFFF8
:10099C00054B00229A60044B07221A6000231800B2
:1009AC00BD4602B080BDC04610E000E080B584B00A
:1009BC0000AFB9607A600F217B18021C1A70BA68FC
:1009CC007B181B785BB211001800FFF75DFFC04667
:1009DC00BD4604B080BD80B582B000AF0200FB1DE7
:1009EC001A70FB1D1B785BB21800FFF733FFC04673
:1009FC00BD4602B080BD80B582B000AF78607B6828
:100A0C001800FFF7AFFF03001800BD4602B080BD11
:100A1C0080B586B000AF7860396000237B6155E10A
:100A2C003B681B6801217A6991400A001340FB6006
:100A3C00FB68002B00D146E13B685B680322134046
:100A4C00012B05D03B685B6803221340022B30D18D
:100A5C007B689B683B617B695B0003229A401300B7
:100A6C00DA433B6913403B613B68DA687B695B00A6
:100A7C009A4013003A6913433B617B683A699A6068
:100A8C007B685B683B6101227B699A401300DA4307
:100A9C003B6913403B613B685B681B0901221A40B0
:100AAC007B699A4013003A6913433B617B683A694E
:100ABC005A603B685B6803221340032B17D07B689A
:100ACC00DB683B617B695B0003229A401300DA43CD
:100ADC003B6913403B613B689A687B695B009A40B9
:100AEC0013003A6913433B617B683A69DA603B68EF
:100AFC005B6803221340022B23D17B69DA087B68E5
:100B0C0008329200D3583B617B69072213409B004B
:100B1C000F229A401300DA433B6913403B613B6858
:100B2C001A697B6907210B409B009A4013003A69B4
:100B3C0013433B617B69DA087B68083292003969A0
:100B4C00D1507B681B683B617B695B0003229A4038
:100B5C001300DA433B6913403B613B685B6803223B
:100B6C001A407B695B009A4013003A6913433B615E
:100B7C007B683A691A603B685A68C0239B02134031
:100B8C0000D1A0E0574B9A69564B01210A439A6158
:100B9C00544B9B6901221340BB60BB68524A7B6972
:100BAC009B0802339B009B583B617B6903221340DB
:100BBC009B000F229A401300DA433B6913403B61C0
:100BCC007A689023DB059A4219D07B68474A934296
:100BDC0013D07B68464A93420DD07B68454A9342BA
:100BEC0007D07B68444A934201D1042308E00523D3
:100BFC0006E0032304E0022302E0012300E00023CB
:100C0C007A6903210A40920093403A6913433B618D
:100C1C0035497B699B0802339B003A695A50374B24
:100C2C001B683B61FB68DA433B6913403B613B68E3
:100C3C005A6880235B02134003D03A69FB68134364
:100C4C003B612E4B3A691A602C4B5B683B61FB682D
:100C5C00DA433B6913403B613B685A6880239B0233
:100C6C00134003D03A69FB6813433B61234B3A6949
:100C7C005A60224B9B683B61FB68DA433B6913402B
:100C8C003B613B685A6880235B03134003D03A698D
:100C9C00FB6813433B61194B3A699A60174BDB684D
:100CAC003B61FB68DA433B6913403B613B685A6824
:100CBC0080239B03134003D03A69FB6813433B61C9
:100CCC000E4B3A69DA607B6901337B613B681A68C9
:100CDC007B69DA40131E00D0A2E6C046C046BD4672
:100CEC0006B080BD00100240000001400004004826
:100CFC0000080048000C00480010004800040140A7
:100D0C0080B582B000AF786008001100BB1C021CDB
:100D1C001A807B1C0A1C1A707B1C1B78002B04D0BD
:100D2C00BB1C1A887B689A6103E0BB1C1A887B6821
:100D3C009A62C046BD4602B080BD000080B582B04C
:100D4C0000AF0200BB1D1A80094B5B69BA1D1288EB
:100D5C00134008D0064BBA1D12885A61BB1D1B8864
:100D6C001800FFF7ABFBC046BD4602B080BDC046C5
:100D7C000004014080B588B000AF78607B68002B20
:100D8C0002D1012300F076FB7B681B680122134023
:100D9C0000D18EE0C54B5B680C221340042B0ED0A7
:100DAC00C24B5B680C221340082B17D1BF4B5A68FF
:100DBC00C0235B021A4080235B029A420ED1BB4BCC
:100DCC001A6880239B02134000D171E07B685B683A
:100DDC00002B00D06CE0012300F04CFB7B685B68BF
:100DEC00012B07D1B14B1A68B04B802149020A4341
:100DFC001A602FE07B685B68002B0CD1AB4B1A6838
:100E0C00AA4BAB490A401A60A84B1A68A74BA949D0
:100E1C000A401A601EE07B685B68052B0ED1A34B61
:100E2C001A68A24B8021C9020A431A609F4B1A68A8
:100E3C009E4B802149020A431A600BE09B4B1A68B7
:100E4C009A4B9B490A401A60984B1A68974B9949E0
:100E5C000A401A607B685B68002B14D0FFF7F0FC2B
:100E6C000300BB6108E0FFF7EBFC0200BB69D31A7F
:100E7C00642B01D90323FDE28C4B1A6880239B025F
:100E8C001340F0D015E0FFF7DBFC0300BB6108E07A
:100E9C00FFF7D6FC0200BB69D31A642B01D90323DC
:100EAC00E8E2824B1A6880239B021340F0D100E0E9
:100EBC00C0467B681B680222134000D16CE07B4B60
:100ECC005B680C2213400ED0784B5B680C221340ED
:100EDC00082B1FD1754B5A68C0235B021A40802324
:100EEC001B029A4216D1714B1B680222134005D08B
:100EFC007B68DB68012B01D00123BBE26B4B1B68C9
:100F0C00F822934319007B681B69DA00674B0A438C
:100F1C001A6041E07B68DB68002B24D0634B1A68B5
:100F2C00624B01210A431A60FFF78AFC0300BB6184
:100F3C0008E0FFF785FC0200BB69D31A022B01D92C
:100F4C00032397E2594B1B6802221340F1D0574BF5
:100F5C001B68F822934319007B681B69DA00534B1A
:100F6C000A431A6018E0514B1A68504B01218A430E
:100F7C001A60FFF765FC0300BB6108E0FFF760FC3B
:100F8C000200BB69D31A022B01D9032372E2474B2F
:100F9C001B6802221340F1D17B681B6808221340A6
:100FAC0036D07B68DB69002B19D0404B5A6A3F4B1B
:100FBC0001210A435A62FFF743FC0300BB6108E0BE
:100FCC00FFF73EFC0200BB69D31A022B01D90323A5
:100FDC0050E2364B5B6A02221340F1D018E0334BDF
:100FEC005A6A324B01218A435A62FFF729FC0300EB
:100FFC00BB6108E0FFF724FC0200BB69D31A022B8B
:10100C0001D9032336E2294B5B6A02221340F1D14A
:10101C007B681B680422134000D1B5E01F203B18ED
:10102C0000221A70214BDA6980235B05134010D122
:10103C001E4BDA691D4B802149050A43DA611B4BB3
:10104C00DA6980235B051340FB60FB683B180122C7
:10105C001A70194B1A6880235B0013401AD1164B77
:10106C001A68154B802149000A431A60FFF7E8FB08
:10107C000300BB6108E0FFF7E3FB0200BB69D31A76
:10108C00642B01D90323F5E10B4B1A6880235B0019
:10109C001340F0D07B689B68012B0FD1034B1A6A6D
:1010AC00024B01210A431A6236E0C046001002408E
:1010BC00FFFFFEFFFFFFFBFF007000407B689B689B
:1010CC00002B0CD1CA4B1A6AC94B01218A431A62F4
:1010DC00C74B1A6AC64B04218A431A621CE07B6810
:1010EC009B68052B0CD1C24B1A6AC14B04210A43D5
:1010FC001A62BF4B1A6ABE4B01210A431A620BE0FB
:10110C00BB4B1A6ABA4B01218A431A62B84B1A6A52
:10111C00B74B04218A431A627B689B68002B14D05E
:10112C00FFF78EFB0300BB6109E0FFF789FB0200B0
:10113C00BB69D31AAF4A934201D903239AE1AC4B52
:10114C001B6A02221340F0D013E0FFF779FB030077
:10115C00BB6109E0FFF774FB0200BB69D31AA54A17
:10116C00934201D9032385E1A14B1B6A0222134050
:10117C00F0D11F23FB181B78012B05D19C4BDA698E
:10118C009B4B9D490A40DA617B681B681022134017
:10119C0063D07B685B69012B2AD1954B5A6B944BBE
:1011AC0004210A435A63924B5A6B914B01210A4317
:1011BC005A63FFF745FB0300BB6108E0FFF740FBF8
:1011CC000200BB69D31A022B01D9032352E1884BCD
:1011DC005B6B02221340F1D0854B5B6BF82293437F
:1011EC0019007B689B69DA00814B0A435A6334E02F
:1011FC007B685B69053311D17D4B5A6B7C4B0421A9
:10120C008A435A637A4B5B6BF822934319007B68D1
:10121C009B69DA00764B0A435A631EE0744B5A6B97
:10122C00734B04210A435A63714B5A6B704B012167
:10123C008A435A63FFF704FB0300BB6108E0FFF726
:10124C00FFFA0200BB69D31A022B01D9032311E167
:10125C00674B5B6B02221340F1D17B681B68202229
:10126C0013405CD0624B5B680C2213400C2B0ED0ED
:10127C005F4B5B680C221340082B14D15C4B5A68F3
:10128C00C0235B021A40C0235B029A420BD1584B1D
:10129C005A6B80235B02134040D07B681B6A012B86
:1012AC003CD00123E6E07B681B6A002B1BD0504B23
:1012BC005A6B4F4B802149020A435A63FFF7C0FA1D
:1012CC000300BB6108E0FFF7BBFA0200BB69D31A4D
:1012DC00022B01D90323CDE0454B5A6B80235B02D3
:1012EC001340F0D01BE0424B5A6B414B43490A4030
:1012FC005A63FFF7A5FA0300BB6108E0FFF7A0FAF9
:10130C000200BB69D31A022B01D90323B2E0384B7C
:10131C005A6B80235B021340F0D100E0C0467B681F
:10132C005B6A002B00D1A4E0314B5B680C221340AC
:10133C00082B00D178E07B685B6A022B4CD12C4BDC
:10134C001A682B4B2E490A401A60FFF779FA0300F2
:10135C00BB6108E0FFF774FA0200BB69D31A022BD9
:10136C0001D9032386E0224B1A6880239B04134087
:10137C00F0D11F4BDB6A0F22934319007B681A6B69
:10138C001B4B0A43DA621A4B5B681E4A1340190066
:10139C007B68DA6A7B689B6A1A43154B0A435A606E
:1013AC00134B1A68124B802149040A431A60FFF749
:1013BC0047FA0300BB6108E0FFF742FA0200BB6981
:1013CC00D31A022B01D9032354E0094B1A6880234A
:1013DC009B041340F0D04CE0054B1A68044B0849B1
:1013EC000A401A60FFF72CFA0300BB6115E0C046F7
:1013FC000010024088130000FFFFFFEFFFFFFEFF0D
:10140C00FFFFFFFEFF7FC2FFFFF71AFA0200BB6966
:10141C00D31A022B01D903232CE0184B1A68802312
:10142C009B041340F0D124E07B685B6A012B01D153
:10143C0001231FE0114B5B687B61104BDB6A3B6146
:10144C007A69C0235B021A407B689B6A9A420ED170
:10145C003B690F221A407B681B6B9A4207D17A6951
:10146C00F0239B031A407B68DB6A9A4201D001236C
:10147C0000E000231800BD4608B080BD00100240FB
:10148C0080B584B000AF786039607B68002B01D1E7
:10149C000123BFE0614B1B68012213403A689A425A
:1014AC0011D95E4B1B680122934319005B4B3A68C0
:1014BC000A431A60594B1B68012213403A689A423E
:1014CC0001D00123A6E07B681B680222134015D0D3
:1014DC007B681B680422134006D0514B5A68504B52
:1014EC00E021C9000A435A604D4B5B68F0229343DC
:1014FC0019007B689A684A4B0A435A607B681B68E0
:10150C00012213404CD07B685B68012B07D1444B04
:10151C001A6880239B02134020D101237AE07B6858
:10152C005B68022B07D13E4B1A6880239B04134047
:10153C0014D101236EE07B685B68032B07D1384B19
:10154C005A6B80235B02134008D1012362E0344BB9
:10155C001B680222134001D101235BE0304B5B6816
:10156C000322934319007B685A682D4B0A435A6037
:10157C00FFF766F90300FB6009E0FFF761F9020071
:10158C00FB68D31A274A934201D9032342E0244B28
:10159C005B680C221A407B685B689B009A42ECD11A
:1015AC001E4B1B68012213403A689A4211D21B4B06
:1015BC001B68012293431900184B3A680A431A60BE
:1015CC00164B1B68012213403A689A4201D0012342
:1015DC0020E07B681B680422134009D0104B5B6829
:1015EC00114A134019007B68DA680D4B0A435A60A4
:1015FC0000F020F801000A4B5B681B090F22134016
:10160C000A4AD35C0A00DA40094B1A600320FFF740
:10161C00D1F800231800BD4604B080BD0020024064
:10162C000010024088130000FFF8FFFFD0170008DD
:10163C000C00002090B58FB000AF1423FB18384A73
:10164C0013CA13C312681A603B1D364A13CA13C35C
:10165C0012681A600023FB620023BB6200237B63C9
:10166C0000237B6200233B632F4B5B68FB62FB6AAE
:10167C000C2213400C2B47D049D8042B02D0082B3A
:10168C0003D044E0294B3B6344E0FB6A9B0C0F22E4
:10169C0013401422BA18D35C7B62234BDB6A0F22F3
:1016AC0013403A1DD35CBB62FA6AC0235B021A403A
:1016BC0080235B029A4209D1B96A1C48FEF71CFDD3
:1016CC0003001A007B6A53437B631AE0FA6AC02357
:1016DC005B021A40C0235B029A4209D1B96A1448D2
:1016EC00FEF70AFD03001A007B6A53437B6308E094
:1016FC00B96A0E48FEF700FD03001A007B6A5343DB
:10170C007B637B6B3B6305E0094B3B6302E0074B60
:10171C003B63C0463B6B1800BD460FB090BDC04646
:10172C00B0170008C01700080010024000127A0021
:10173C00006CDC0270B500260C4D0D4C641BA41023
:10174C00A64209D1002600F021F80A4D0A4C641B70
:10175C00A410A64205D170BDB300EB5898470136D2
:10176C00EEE7B300EB5898470136F2E7E0170008B4
:10177C00E0170008E0170008E417000803008218BF
:10178C00934200D1704719700133F9E7F8B5C046A0
:10179C00F8BC08BC9E467047F8B5C046F8BC08BCFF
:0417AC009E4670479E
:1017B00002030405060708090A0B0C0D0E0F101092
:1017C0000102030405060708090A0B0C0D0E0F1091
:1017D00000000000000000000102030406070809E1
:0417E000E500000818
:0417E400BD0000083C
:1017E8003F065B4F666D7D077F6F000000127A0031
:0817F8000400000001000000E4
:0400000508000745A3
:00000001FF
